:100000000C942A000C9447000C9447000C94470071
:100010000C9447000C9447000C9447000C94470044
:100020000C94D4000C9447000C9447000C944700A7
:100030000C9447000C9447000C9447000C94470024
:100040000C9447000C9447000C9447000C94470014
:100050000C94470011241FBECFE5D4E0DEBFCDBF16
:1000600010E0A0E6B0E0E4E5F3E002C005900D92F8
:10007000A636B107D9F710E0A6E6B0E001C01D92A0
:10008000A839B107E1F70E94CF000C94A8010C94A5
:100090000000DF93CF93CDB7DEB7E0970FB6F894AB
:1000A000DEBF0FBECDBFCE010196E0960FB6F8942D
:1000B000DEBF0FBECDBFCF91DF9108959C01FA0145
:1000C000DC01A170B07080FD03C088E088BB01C076
:1000D00018BAAB01425050402417350711F481E0A3
:1000E00088BB615070402617370709F418BAAB2B4C
:1000F00079F42417350764F4C90162E070E00E94C6
:100100004401660F771FE60FF71F8081880F88BBB9
:10011000089520E030E0A1E040E951E072E068E0BD
:10012000A8BB88EE93E0FA013197F1F70197D9F770
:10013000C90183709070892B11F478BB01C018BA83
:1001400088EE93E0FA013197F1F70197D9F788B378
:10015000862788BB88EE93E0FA013197F1F7019783
:10016000D9F788B3862788BB88EE93E0FA013197E8
:10017000F1F70197D9F72F5F3F4FD2CF1BBA089500
:100180008BE087BB8FEF8ABB11BA8BBB94E098BB27
:1001900083E08EBD99BF1DBC1CBC789408950E945D
:1001A000C00080E090E008951F920F920FB60F926A
:1001B00011242F933F934F935F936F937F938F936C
:1001C0009F93AF93BF93EF93FF932091660030917D
:1001D000670080916000909161002817390754F4FE
:1001E00080916600909167000196909367008093DC
:1001F000660004C01092670010926600609166006D
:1002000070916700882777FD8095982F20EA36E85F
:1002100041E050E00E94570161157105810591058B
:1002200019F48BB380958BBB4091660050916700A9
:10023000209164003091650080E197E2BC01269F27
:10024000C001279F900D369F900D11244817590724
:1002500051F4609160007091610086E690E048E69C
:1002600050E00E945E00FF91EF91BF91AF919F918E
:100270008F917F916F915F914F913F912F910F904F
:100280000FBE0F901F90189597FB092E07260AD0D6
:1002900077FD04D027D006D000201AF47095619520
:1002A0007F4F0895F6F7909581959F4F089597FB9E
:1002B000092E05260ED057FD04D028D00AD0001CE8
:1002C00038F450954095309521953F4F4F4F5F4FF3
:1002D0000895F6F790958095709561957F4F8F4FB3
:1002E0009F4F0895AA1BBB1B51E107C0AA1FBB1F4C
:1002F000A617B70710F0A61BB70B881F991F5A95B2
:10030000A9F780959095BC01CD010895A1E21A2E20
:10031000AA1BBB1BFD010DC0AA1FBB1FEE1FFF1FA9
:10032000A217B307E407F50720F0A21BB30BE40BF9
:10033000F50B661F771F881F991F1A9469F7609540
:100340007095809590959B01AC01BD01CF010895FA
:04035000F894FFCF4F
:0603540032003C00320003
:00000001FF
