:100000000C942A000C943C000C943C000C943C0092
:100010000C943C000C943C000C943C000C943C0070
:100020000C943C000C943C000C943C000C943C0060
:100030000C943C000C943C000C943C000C943C0050
:100040000C943C000C943C000C943C000C943C0040
:100050000C943C0011241FBECFE5D4E0DEBFCDBF21
:1000600010E0A0E6B0E001C01D92A236B107E1F7B2
:100070000E947E000C9489000C94000087E087BBEE
:100080008FEF8ABB11BA88BB0895089520E030E055
:10009000A1E040E951E072E064E08BB380958BBB56
:1000A000A8BB88EE93E0FA013197F1F70197D9F7F1
:1000B000C90183709070892B11F478BB01C018BA04
:1000C00088EE93E0FA013197F1F70197D9F788B3F9
:1000D000862788BB88EE93E0FA013197F1F7019704
:1000E000D9F788B3862788BB88EE93E0FA01319769
:1000F000F1F70197D9F72F5F3F4FCFCF87E087BB4D
:100100008FEF8ABB11BA88BB0E94460080E090E066
:060110000895F894FFCFF2
:00000001FF
