:100000000C942A000C943C000C943C000C943C0092
:100010000C943C000C943C000C943C000C943C0070
:100020000C943C000C943C000C943C000C943C0060
:100030000C943C000C943C000C943C000C943C0050
:100040000C943C000C943C000C948C000C943C00F0
:100050000C943C0011241FBECFE5D4E0DEBFCDBF21
:1000600010E0A0E6B0E001C01D92A236B107E1F7B2
:100070000E9485000C949B000C940000089520E0E1
:1000800030E0A1E040E951E072E068E0A8BB88EE12
:1000900093E0FA013197F1F70197D9F7C90183701D
:1000A0009070892B11F478BB01C018BA88EE93E0E8
:1000B000FA013197F1F70197D9F788B3862788BB02
:1000C00088EE93E0FA013197F1F70197D9F788B3F9
:1000D000862788BB88EE93E0FA013197F1F7019704
:1000E000D9F72F5F3F4FD2CF1BBA08958BE087BB64
:1000F0008FEF8ABB11BA8BBB84E088BB80E28BBFD9
:1001000084B7806484BF789408950E9476000E942A
:100110003F0080E090E008951F920F920FB60F927B
:1001200011248F938BB380958BBB8F910F900FBE53
:0A0130000F901F901895F894FFCF70
:00000001FF
